{
  "_format": "hh-sol-artifact-1",
  "contractName": "Rookies",
  "sourceName": "contracts/Rookies.sol",
  "abi": [
    {
      "inputs": [],
      "stateMutability": "nonpayable",
      "type": "constructor"
    },
    {
      "anonymous": false,
      "inputs": [
        {
          "indexed": true,
          "internalType": "address",
          "name": "owner",
          "type": "address"
        },
        {
          "indexed": true,
          "internalType": "address",
          "name": "approved",
          "type": "address"
        },
        {
          "indexed": true,
          "internalType": "uint256",
          "name": "tokenId",
          "type": "uint256"
        }
      ],
      "name": "Approval",
      "type": "event"
    },
    {
      "anonymous": false,
      "inputs": [
        {
          "indexed": true,
          "internalType": "address",
          "name": "owner",
          "type": "address"
        },
        {
          "indexed": true,
          "internalType": "address",
          "name": "operator",
          "type": "address"
        },
        {
          "indexed": false,
          "internalType": "bool",
          "name": "approved",
          "type": "bool"
        }
      ],
      "name": "ApprovalForAll",
      "type": "event"
    },
    {
      "anonymous": false,
      "inputs": [
        {
          "indexed": true,
          "internalType": "address",
          "name": "previousOwner",
          "type": "address"
        },
        {
          "indexed": true,
          "internalType": "address",
          "name": "newOwner",
          "type": "address"
        }
      ],
      "name": "OwnershipTransferred",
      "type": "event"
    },
    {
      "anonymous": false,
      "inputs": [],
      "name": "PreSale_Started",
      "type": "event"
    },
    {
      "anonymous": false,
      "inputs": [],
      "name": "PreSale_Stopped",
      "type": "event"
    },
    {
      "anonymous": false,
      "inputs": [],
      "name": "PublicSale_Started",
      "type": "event"
    },
    {
      "anonymous": false,
      "inputs": [],
      "name": "PublicSale_Stopped",
      "type": "event"
    },
    {
      "anonymous": false,
      "inputs": [
        {
          "indexed": false,
          "internalType": "uint256",
          "name": "supply",
          "type": "uint256"
        }
      ],
      "name": "TokenMinted",
      "type": "event"
    },
    {
      "anonymous": false,
      "inputs": [
        {
          "indexed": true,
          "internalType": "address",
          "name": "from",
          "type": "address"
        },
        {
          "indexed": true,
          "internalType": "address",
          "name": "to",
          "type": "address"
        },
        {
          "indexed": true,
          "internalType": "uint256",
          "name": "tokenId",
          "type": "uint256"
        }
      ],
      "name": "Transfer",
      "type": "event"
    },
    {
      "inputs": [],
      "name": "MAX_SUPPLY",
      "outputs": [
        {
          "internalType": "uint256",
          "name": "",
          "type": "uint256"
        }
      ],
      "stateMutability": "view",
      "type": "function"
    },
    {
      "inputs": [],
      "name": "PRICE",
      "outputs": [
        {
          "internalType": "uint256",
          "name": "",
          "type": "uint256"
        }
      ],
      "stateMutability": "view",
      "type": "function"
    },
    {
      "inputs": [
        {
          "internalType": "address[]",
          "name": "addresses",
          "type": "address[]"
        }
      ],
      "name": "addToAllowList",
      "outputs": [],
      "stateMutability": "nonpayable",
      "type": "function"
    },
    {
      "inputs": [
        {
          "internalType": "uint256",
          "name": "num",
          "type": "uint256"
        },
        {
          "internalType": "address",
          "name": "recipient",
          "type": "address"
        }
      ],
      "name": "airdrop",
      "outputs": [],
      "stateMutability": "nonpayable",
      "type": "function"
    },
    {
      "inputs": [
        {
          "internalType": "address[]",
          "name": "recipients",
          "type": "address[]"
        }
      ],
      "name": "airdropToMany",
      "outputs": [],
      "stateMutability": "nonpayable",
      "type": "function"
    },
    {
      "inputs": [
        {
          "internalType": "address",
          "name": "to",
          "type": "address"
        },
        {
          "internalType": "uint256",
          "name": "tokenId",
          "type": "uint256"
        }
      ],
      "name": "approve",
      "outputs": [],
      "stateMutability": "nonpayable",
      "type": "function"
    },
    {
      "inputs": [
        {
          "internalType": "address",
          "name": "owner",
          "type": "address"
        }
      ],
      "name": "balanceOf",
      "outputs": [
        {
          "internalType": "uint256",
          "name": "",
          "type": "uint256"
        }
      ],
      "stateMutability": "view",
      "type": "function"
    },
    {
      "inputs": [
        {
          "internalType": "uint256",
          "name": "tokenId",
          "type": "uint256"
        }
      ],
      "name": "getApproved",
      "outputs": [
        {
          "internalType": "address",
          "name": "",
          "type": "address"
        }
      ],
      "stateMutability": "view",
      "type": "function"
    },
    {
      "inputs": [
        {
          "internalType": "uint256",
          "name": "tokenId",
          "type": "uint256"
        }
      ],
      "name": "getOwnershipData",
      "outputs": [
        {
          "components": [
            {
              "internalType": "address",
              "name": "addr",
              "type": "address"
            },
            {
              "internalType": "uint64",
              "name": "startTimestamp",
              "type": "uint64"
            }
          ],
          "internalType": "struct ERC721A.TokenOwnership",
          "name": "",
          "type": "tuple"
        }
      ],
      "stateMutability": "view",
      "type": "function"
    },
    {
      "inputs": [],
      "name": "getTime",
      "outputs": [
        {
          "internalType": "uint256",
          "name": "",
          "type": "uint256"
        }
      ],
      "stateMutability": "view",
      "type": "function"
    },
    {
      "inputs": [
        {
          "internalType": "address",
          "name": "_owner",
          "type": "address"
        }
      ],
      "name": "getTokenByOwner",
      "outputs": [
        {
          "internalType": "uint256[]",
          "name": "",
          "type": "uint256[]"
        }
      ],
      "stateMutability": "view",
      "type": "function"
    },
    {
      "inputs": [
        {
          "internalType": "address",
          "name": "owner",
          "type": "address"
        },
        {
          "internalType": "address",
          "name": "operator",
          "type": "address"
        }
      ],
      "name": "isApprovedForAll",
      "outputs": [
        {
          "internalType": "bool",
          "name": "",
          "type": "bool"
        }
      ],
      "stateMutability": "view",
      "type": "function"
    },
    {
      "inputs": [],
      "name": "isPreSaleActive",
      "outputs": [
        {
          "internalType": "bool",
          "name": "",
          "type": "bool"
        }
      ],
      "stateMutability": "view",
      "type": "function"
    },
    {
      "inputs": [],
      "name": "isPublicSaleActive",
      "outputs": [
        {
          "internalType": "bool",
          "name": "",
          "type": "bool"
        }
      ],
      "stateMutability": "view",
      "type": "function"
    },
    {
      "inputs": [
        {
          "internalType": "uint8",
          "name": "NUM_TOKENS_MINT",
          "type": "uint8"
        }
      ],
      "name": "mint_presale",
      "outputs": [],
      "stateMutability": "payable",
      "type": "function"
    },
    {
      "inputs": [
        {
          "internalType": "uint8",
          "name": "NUM_TOKENS_MINT",
          "type": "uint8"
        }
      ],
      "name": "mint_public",
      "outputs": [],
      "stateMutability": "payable",
      "type": "function"
    },
    {
      "inputs": [],
      "name": "name",
      "outputs": [
        {
          "internalType": "string",
          "name": "",
          "type": "string"
        }
      ],
      "stateMutability": "view",
      "type": "function"
    },
    {
      "inputs": [
        {
          "internalType": "address",
          "name": "owner",
          "type": "address"
        }
      ],
      "name": "numberMinted",
      "outputs": [
        {
          "internalType": "uint256",
          "name": "",
          "type": "uint256"
        }
      ],
      "stateMutability": "view",
      "type": "function"
    },
    {
      "inputs": [],
      "name": "offsetIndex",
      "outputs": [
        {
          "internalType": "uint256",
          "name": "",
          "type": "uint256"
        }
      ],
      "stateMutability": "view",
      "type": "function"
    },
    {
      "inputs": [
        {
          "internalType": "address",
          "name": "addr",
          "type": "address"
        }
      ],
      "name": "onAllowList",
      "outputs": [
        {
          "internalType": "bool",
          "name": "",
          "type": "bool"
        }
      ],
      "stateMutability": "view",
      "type": "function"
    },
    {
      "inputs": [],
      "name": "owner",
      "outputs": [
        {
          "internalType": "address",
          "name": "",
          "type": "address"
        }
      ],
      "stateMutability": "view",
      "type": "function"
    },
    {
      "inputs": [
        {
          "internalType": "uint256",
          "name": "tokenId",
          "type": "uint256"
        }
      ],
      "name": "ownerOf",
      "outputs": [
        {
          "internalType": "address",
          "name": "",
          "type": "address"
        }
      ],
      "stateMutability": "view",
      "type": "function"
    },
    {
      "inputs": [],
      "name": "pausePreSale",
      "outputs": [],
      "stateMutability": "nonpayable",
      "type": "function"
    },
    {
      "inputs": [],
      "name": "pausePublicSale",
      "outputs": [],
      "stateMutability": "nonpayable",
      "type": "function"
    },
    {
      "inputs": [
        {
          "internalType": "address[]",
          "name": "addresses",
          "type": "address[]"
        }
      ],
      "name": "removeFromAllowList",
      "outputs": [],
      "stateMutability": "nonpayable",
      "type": "function"
    },
    {
      "inputs": [],
      "name": "renounceOwnership",
      "outputs": [],
      "stateMutability": "nonpayable",
      "type": "function"
    },
    {
      "inputs": [
        {
          "internalType": "uint256",
          "name": "num",
          "type": "uint256"
        }
      ],
      "name": "reserve",
      "outputs": [],
      "stateMutability": "nonpayable",
      "type": "function"
    },
    {
      "inputs": [],
      "name": "revealTimeStamp",
      "outputs": [
        {
          "internalType": "uint256",
          "name": "",
          "type": "uint256"
        }
      ],
      "stateMutability": "view",
      "type": "function"
    },
    {
      "inputs": [
        {
          "internalType": "address",
          "name": "from",
          "type": "address"
        },
        {
          "internalType": "address",
          "name": "to",
          "type": "address"
        },
        {
          "internalType": "uint256",
          "name": "tokenId",
          "type": "uint256"
        }
      ],
      "name": "safeTransferFrom",
      "outputs": [],
      "stateMutability": "nonpayable",
      "type": "function"
    },
    {
      "inputs": [
        {
          "internalType": "address",
          "name": "from",
          "type": "address"
        },
        {
          "internalType": "address",
          "name": "to",
          "type": "address"
        },
        {
          "internalType": "uint256",
          "name": "tokenId",
          "type": "uint256"
        },
        {
          "internalType": "bytes",
          "name": "_data",
          "type": "bytes"
        }
      ],
      "name": "safeTransferFrom",
      "outputs": [],
      "stateMutability": "nonpayable",
      "type": "function"
    },
    {
      "inputs": [
        {
          "internalType": "address",
          "name": "operator",
          "type": "address"
        },
        {
          "internalType": "bool",
          "name": "approved",
          "type": "bool"
        }
      ],
      "name": "setApprovalForAll",
      "outputs": [],
      "stateMutability": "nonpayable",
      "type": "function"
    },
    {
      "inputs": [
        {
          "internalType": "string",
          "name": "baseURI",
          "type": "string"
        }
      ],
      "name": "setBaseURI",
      "outputs": [],
      "stateMutability": "nonpayable",
      "type": "function"
    },
    {
      "inputs": [
        {
          "internalType": "string",
          "name": "preRevealURI",
          "type": "string"
        }
      ],
      "name": "setPreRevealURI",
      "outputs": [],
      "stateMutability": "nonpayable",
      "type": "function"
    },
    {
      "inputs": [
        {
          "internalType": "uint256",
          "name": "newRevealTimeStamp",
          "type": "uint256"
        }
      ],
      "name": "setRevealTimestamp",
      "outputs": [],
      "stateMutability": "nonpayable",
      "type": "function"
    },
    {
      "inputs": [],
      "name": "startPreSale",
      "outputs": [],
      "stateMutability": "nonpayable",
      "type": "function"
    },
    {
      "inputs": [],
      "name": "startPublicSale",
      "outputs": [],
      "stateMutability": "nonpayable",
      "type": "function"
    },
    {
      "inputs": [
        {
          "internalType": "bytes4",
          "name": "interfaceId",
          "type": "bytes4"
        }
      ],
      "name": "supportsInterface",
      "outputs": [
        {
          "internalType": "bool",
          "name": "",
          "type": "bool"
        }
      ],
      "stateMutability": "view",
      "type": "function"
    },
    {
      "inputs": [],
      "name": "symbol",
      "outputs": [
        {
          "internalType": "string",
          "name": "",
          "type": "string"
        }
      ],
      "stateMutability": "view",
      "type": "function"
    },
    {
      "inputs": [
        {
          "internalType": "uint256",
          "name": "index",
          "type": "uint256"
        }
      ],
      "name": "tokenByIndex",
      "outputs": [
        {
          "internalType": "uint256",
          "name": "",
          "type": "uint256"
        }
      ],
      "stateMutability": "view",
      "type": "function"
    },
    {
      "inputs": [
        {
          "internalType": "address",
          "name": "owner",
          "type": "address"
        },
        {
          "internalType": "uint256",
          "name": "index",
          "type": "uint256"
        }
      ],
      "name": "tokenOfOwnerByIndex",
      "outputs": [
        {
          "internalType": "uint256",
          "name": "",
          "type": "uint256"
        }
      ],
      "stateMutability": "view",
      "type": "function"
    },
    {
      "inputs": [
        {
          "internalType": "uint256",
          "name": "tokenId",
          "type": "uint256"
        }
      ],
      "name": "tokenURI",
      "outputs": [
        {
          "internalType": "string",
          "name": "a",
          "type": "string"
        }
      ],
      "stateMutability": "view",
      "type": "function"
    },
    {
      "inputs": [],
      "name": "totalSupply",
      "outputs": [
        {
          "internalType": "uint256",
          "name": "",
          "type": "uint256"
        }
      ],
      "stateMutability": "view",
      "type": "function"
    },
    {
      "inputs": [
        {
          "internalType": "address",
          "name": "from",
          "type": "address"
        },
        {
          "internalType": "address",
          "name": "to",
          "type": "address"
        },
        {
          "internalType": "uint256",
          "name": "tokenId",
          "type": "uint256"
        }
      ],
      "name": "transferFrom",
      "outputs": [],
      "stateMutability": "nonpayable",
      "type": "function"
    },
    {
      "inputs": [
        {
          "internalType": "address",
          "name": "newOwner",
          "type": "address"
        }
      ],
      "name": "transferOwnership",
      "outputs": [],
      "stateMutability": "nonpayable",
      "type": "function"
    },
    {
      "inputs": [],
      "name": "withdrawMoney",
      "outputs": [],
      "stateMutability": "nonpayable",
      "type": "function"
    }
  ],
  "bytecode": "0x60806040526007805461ffff60a01b191690556000600855620000254261025862000213565b600955600c805472380a88f081020ae09ab8d19b0c554db499b66d6001600160a01b03199182168117909255600d8054821683179055600e8054821683179055600f8054821683179055601080548216831790556011805490911690911790553480156200009257600080fd5b506040805180820182526007815266526f6f6b69657360c81b602080830191825283518085019094526004845263524f4b5960e01b908401528151919291620000de916001916200016d565b508051620000f49060029060208401906200016d565b505050620001116200010b6200011760201b60201c565b6200011b565b62000277565b3390565b600780546001600160a01b038381166001600160a01b0319831681179093556040519116919082907f8be0079c531659141344cd1fd0a4f28419497f9722a3daafe3b4186f6b6457e090600090a35050565b8280546200017b906200023a565b90600052602060002090601f0160209004810192826200019f5760008555620001ea565b82601f10620001ba57805160ff1916838001178555620001ea565b82800160010185558215620001ea579182015b82811115620001ea578251825591602001919060010190620001cd565b50620001f8929150620001fc565b5090565b5b80821115620001f85760008155600101620001fd565b600082198211156200023557634e487b7160e01b600052601160045260246000fd5b500190565b600181811c908216806200024f57607f821691505b602082108114156200027157634e487b7160e01b600052602260045260246000fd5b50919050565b61308580620002876000396000f3fe6080604052600436106102725760003560e01c80636352211e1161014f5780639d044ed3116100c1578063c79ef8121161007a578063c79ef81214610749578063c87b56dd14610769578063dc33e68114610789578063e985e9c5146107a9578063f2fde38b146107f2578063ffe90ba61461081257600080fd5b80639d044ed314610695578063a22cb465146106b4578063a51312c8146106d4578063ac446002146106f4578063b88d4fde14610709578063bc63f02e1461072957600080fd5b80637263cfe2116101135780637263cfe2146105ba578063819b25ba146105da5780638d859f3e146105fa5780638da5cb5b146106155780639231ab2a1461063357806395d89b411461068057600080fd5b80636352211e1461053c5780636b54ec511461055c57806370a082311461056f578063715018a61461058f57806371f9c534146105a457600080fd5b80632bf79c94116101e857806342842e0e116101ac57806342842e0e1461049f5780634357da58146104bf5780634f6ccce7146104d4578063557ed1ba146104f457806355dd574c1461050757806355f804b31461051c57600080fd5b80632bf79c94146103f05780632f745c591461041d57806332cb6b0c1461043d57806337dfbbd7146104535780633a0658921461046657600080fd5b80630c1c972a1161023a5780630c1c972a146103485780630c41f4971461035d57806318160ddd146103725780631e84c4131461039157806323b872dd146103b05780632a85db55146103d057600080fd5b8063018a2c371461027757806301ffc9a71461029957806306fdde03146102ce578063081812fc146102f0578063095ea7b314610328575b600080fd5b34801561028357600080fd5b50610297610292366004612c80565b610828565b005b3480156102a557600080fd5b506102b96102b4366004612b9f565b610860565b60405190151581526020015b60405180910390f35b3480156102da57600080fd5b506102e36108cd565b6040516102c59190612dcb565b3480156102fc57600080fd5b5061031061030b366004612c80565b61095f565b6040516001600160a01b0390911681526020016102c5565b34801561033457600080fd5b50610297610343366004612a4e565b6109ea565b34801561035457600080fd5b50610297610b02565b34801561036957600080fd5b50610297610b6a565b34801561037e57600080fd5b506000545b6040519081526020016102c5565b34801561039d57600080fd5b50600754600160a81b900460ff166102b9565b3480156103bc57600080fd5b506102976103cb36600461295b565b610bcc565b3480156103dc57600080fd5b506102976103eb366004612c38565b610bd7565b3480156103fc57600080fd5b5061041061040b36600461290d565b610c18565b6040516102c59190612d87565b34801561042957600080fd5b50610383610438366004612a4e565b610cb9565b34801561044957600080fd5b506103836103e881565b610297610461366004612cbc565b610e15565b34801561047257600080fd5b506102b961048136600461290d565b6001600160a01b031660009081526012602052604090205460ff1690565b3480156104ab57600080fd5b506102976104ba36600461295b565b611041565b3480156104cb57600080fd5b5061029761105c565b3480156104e057600080fd5b506103836104ef366004612c80565b6110be565b34801561050057600080fd5b5042610383565b34801561051357600080fd5b50610297611120565b34801561052857600080fd5b50610297610537366004612bd9565b611188565b34801561054857600080fd5b50610310610557366004612c80565b6111be565b61029761056a366004612cbc565b6111d0565b34801561057b57600080fd5b5061038361058a36600461290d565b61142e565b34801561059b57600080fd5b506102976114bf565b3480156105b057600080fd5b5061038360095481565b3480156105c657600080fd5b506102976105d5366004612a78565b6114f5565b3480156105e657600080fd5b506102976105f5366004612c80565b611611565b34801561060657600080fd5b5061038366038d7ea4c6800081565b34801561062157600080fd5b506007546001600160a01b0316610310565b34801561063f57600080fd5b5061065361064e366004612c80565b611673565b6040805182516001600160a01b031681526020928301516001600160401b031692810192909252016102c5565b34801561068c57600080fd5b506102e3611690565b3480156106a157600080fd5b50600754600160a01b900460ff166102b9565b3480156106c057600080fd5b506102976106cf366004612a12565b61169f565b3480156106e057600080fd5b506102976106ef366004612a78565b611764565b34801561070057600080fd5b50610297611880565b34801561071557600080fd5b50610297610724366004612997565b611aaf565b34801561073557600080fd5b50610297610744366004612c99565b611ae8565b34801561075557600080fd5b50610297610764366004612aec565b611b89565b34801561077557600080fd5b506102e3610784366004612c80565b611c24565b34801561079557600080fd5b506103836107a436600461290d565b611dc0565b3480156107b557600080fd5b506102b96107c4366004612928565b6001600160a01b03918216600090815260066020908152604080832093909416825291909152205460ff1690565b3480156107fe57600080fd5b5061029761080d36600461290d565b611dcb565b34801561081e57600080fd5b5061038360085481565b6007546001600160a01b0316331461085b5760405162461bcd60e51b815260040161085290612e03565b60405180910390fd5b600955565b60006001600160e01b031982166380ac58cd60e01b148061089157506001600160e01b03198216635b5e139f60e01b145b806108ac57506001600160e01b0319821663780e9d6360e01b145b806108c757506301ffc9a760e01b6001600160e01b03198316145b92915050565b6060600180546108dc90612f77565b80601f016020809104026020016040519081016040528092919081815260200182805461090890612f77565b80156109555780601f1061092a57610100808354040283529160200191610955565b820191906000526020600020905b81548152906001019060200180831161093857829003601f168201915b5050505050905090565b600061096c826000541190565b6109ce5760405162461bcd60e51b815260206004820152602d60248201527f455243373231413a20617070726f76656420717565727920666f72206e6f6e6560448201526c3c34b9ba32b73a103a37b5b2b760991b6064820152608401610852565b506000908152600560205260409020546001600160a01b031690565b60006109f5826111be565b9050806001600160a01b0316836001600160a01b03161415610a645760405162461bcd60e51b815260206004820152602260248201527f455243373231413a20617070726f76616c20746f2063757272656e74206f776e60448201526132b960f11b6064820152608401610852565b336001600160a01b0382161480610a805750610a8081336107c4565b610af25760405162461bcd60e51b815260206004820152603960248201527f455243373231413a20617070726f76652063616c6c6572206973206e6f74206f60448201527f776e6572206e6f7220617070726f76656420666f7220616c6c000000000000006064820152608401610852565b610afd838383611e63565b505050565b6007546001600160a01b03163314610b2c5760405162461bcd60e51b815260040161085290612e03565b6007805460ff60a81b1916600160a81b1790556040517f0d8772ece36bfded90152a5e9203d325f78459b9c606715010603b6ed3dfd7fc90600090a1565b6007546001600160a01b03163314610b945760405162461bcd60e51b815260040161085290612e03565b6007805460ff60a81b191690556040517f940167c74be6bfc68b7f82ca73379c462a44e07f9d48a00e461a8d273055406f90600090a1565b610afd838383611ebf565b6007546001600160a01b03163314610c015760405162461bcd60e51b815260040161085290612e03565b8051610c1490600b906020840190612796565b5050565b60606000610c258361142e565b90506000816001600160401b03811115610c4157610c41613023565b604051908082528060200260200182016040528015610c6a578160200160208202803683370190505b50905060005b82811015610cb157610c828582610cb9565b828281518110610c9457610c9461300d565b602090810291909101015280610ca981612fb2565b915050610c70565b509392505050565b6000610cc48361142e565b8210610d1d5760405162461bcd60e51b815260206004820152602260248201527f455243373231413a206f776e657220696e646578206f7574206f6620626f756e604482015261647360f01b6064820152608401610852565b600080549080805b83811015610db5576000818152600360209081526040918290208251808401909352546001600160a01b038116808452600160a01b9091046001600160401b03169183019190915215610d7757805192505b876001600160a01b0316836001600160a01b03161415610dac5786841415610da5575093506108c792505050565b6001909301925b50600101610d25565b5060405162461bcd60e51b815260206004820152602e60248201527f455243373231413a20756e61626c6520746f2067657420746f6b656e206f662060448201526d0deeedccae440c4f240d2dcc8caf60931b6064820152608401610852565b333214610e645760405162461bcd60e51b815260206004820152601c60248201527f4f6f70732e20536f6d657468696e672077656e742077726f6e672021000000006044820152606401610852565b600754600160a81b900460ff16610eb35760405162461bcd60e51b815260206004820152601360248201527253616c6573206973206e6f742061637469766560681b6044820152606401610852565b610384610ecc8260ff16610ec660005490565b906121a2565b1115610eea5760405162461bcd60e51b815260040161085290612e8b565b60038160ff161115610f485760405162461bcd60e51b815260206004820152602160248201527f596f752063616e206e6f74206d696e74206f766572203320617420612074696d6044820152606560f81b6064820152608401610852565b60008160ff1611610f9b5760405162461bcd60e51b815260206004820152601d60248201527f4174206c65617374206f6e652073686f756c64206265206d696e7465640000006044820152606401610852565b34610fb060ff831666038d7ea4c68000612f15565b1115610ff65760405162461bcd60e51b8152602060048201526015602482015274139bdd08195b9bdd59da08195d1a195c881cd95b9d605a1b6044820152606401610852565b611003338260ff166121b5565b7ff00d28232b285f24f2e38415deb2ceb31069e70d4505838b3911b4f02058502e61102d60005490565b60405190815260200160405180910390a150565b610afd83838360405180602001604052806000815250611aaf565b6007546001600160a01b031633146110865760405162461bcd60e51b815260040161085290612e03565b6007805460ff60a01b191690556040517fe333dc31f6e30ce04d94fc7a1d908b1bab0c8562d00245f48c42ad8413b8f3fc90600090a1565b60008054821061111c5760405162461bcd60e51b815260206004820152602360248201527f455243373231413a20676c6f62616c20696e646578206f7574206f6620626f756044820152626e647360e81b6064820152608401610852565b5090565b6007546001600160a01b0316331461114a5760405162461bcd60e51b815260040161085290612e03565b6007805460ff60a01b1916600160a01b1790556040517f2f63c685900acc2b1720452190d7f9f620a79fcd695a9e3774e5017e7679d04890600090a1565b6007546001600160a01b031633146111b25760405162461bcd60e51b815260040161085290612e03565b610afd600a8383612816565b60006111c9826121bf565b5192915050565b33321461121f5760405162461bcd60e51b815260206004820152601c60248201527f4f6f70732e20536f6d657468696e672077656e742077726f6e672021000000006044820152606401610852565b600754600160a01b900460ff1661126e5760405162461bcd60e51b815260206004820152601360248201527253616c6573206973206e6f742061637469766560681b6044820152606401610852565b6103846112818260ff16610ec660005490565b111561129f5760405162461bcd60e51b815260040161085290612e8b565b3360009081526012602052604090205460ff166112fe5760405162461bcd60e51b815260206004820152601c60248201527f596f7520617265206e6f7420696e2074686520616c6c6f774c697374000000006044820152606401610852565b60028160ff16111561135c5760405162461bcd60e51b815260206004820152602160248201527f596f752063616e206e6f74206d696e74206f766572203220617420612074696d6044820152606560f81b6064820152608401610852565b60008160ff16116113af5760405162461bcd60e51b815260206004820152601d60248201527f4174206c65617374206f6e652073686f756c64206265206d696e7465640000006044820152606401610852565b346113c460ff831666038d7ea4c68000612f15565b111561140a5760405162461bcd60e51b8152602060048201526015602482015274139bdd08195b9bdd59da08195d1a195c881cd95b9d605a1b6044820152606401610852565b336000818152601260205260409020805460ff191690556110039060ff83166121b5565b60006001600160a01b03821661149a5760405162461bcd60e51b815260206004820152602b60248201527f455243373231413a2062616c616e636520717565727920666f7220746865207a60448201526a65726f206164647265737360a81b6064820152608401610852565b506001600160a01b03166000908152600460205260409020546001600160801b031690565b6007546001600160a01b031633146114e95760405162461bcd60e51b815260040161085290612e03565b6114f36000612295565b565b6007546001600160a01b0316331461151f5760405162461bcd60e51b815260040161085290612e03565b60005b81811015610afd57600083838381811061153e5761153e61300d565b9050602002016020810190611553919061290d565b6001600160a01b031614156115aa5760405162461bcd60e51b815260206004820152601a60248201527f43616e27742061646420746865206e756c6c20616464726573730000000000006044820152606401610852565b6001601260008585858181106115c2576115c261300d565b90506020020160208101906115d7919061290d565b6001600160a01b031681526020810191909152604001600020805460ff19169115159190911790558061160981612fb2565b915050611522565b6007546001600160a01b0316331461163b5760405162461bcd60e51b815260040161085290612e03565b6103e861164b82610ec660005490565b11156116695760405162461bcd60e51b815260040161085290612e8b565b61100333826121b5565b60408051808201909152600080825260208201526108c7826121bf565b6060600280546108dc90612f77565b6001600160a01b0382163314156116f85760405162461bcd60e51b815260206004820152601a60248201527f455243373231413a20617070726f766520746f2063616c6c65720000000000006044820152606401610852565b3360008181526006602090815260408083206001600160a01b03871680855290835292819020805460ff191686151590811790915590519081529192917f17307eab39ab6107e8899845ad3d59bd9653f200f220920489ca2b5937696c31910160405180910390a35050565b6007546001600160a01b0316331461178e5760405162461bcd60e51b815260040161085290612e03565b60005b81811015610afd5760008383838181106117ad576117ad61300d565b90506020020160208101906117c2919061290d565b6001600160a01b031614156118195760405162461bcd60e51b815260206004820152601a60248201527f43616e27742061646420746865206e756c6c20616464726573730000000000006044820152606401610852565b6000601260008585858181106118315761183161300d565b9050602002016020810190611846919061290d565b6001600160a01b031681526020810191909152604001600020805460ff19169115159190911790558061187881612fb2565b915050611791565b600c546001600160a01b03163314806118a35750600d546001600160a01b031633145b806118b85750600e546001600160a01b031633145b806118cd5750600f546001600160a01b031633145b806118e257506010546001600160a01b031633145b806118f757506011546001600160a01b031633145b61190057600080fd5b600061190d600647612f01565b600c546040519192506001600160a01b03169082156108fc029083906000818181858888f193505050506119535760405162461bcd60e51b815260040161085290612dde565b600d546040516001600160a01b039091169082156108fc029083906000818181858888f193505050506119985760405162461bcd60e51b815260040161085290612dde565b600e546040516001600160a01b039091169082156108fc029083906000818181858888f193505050506119dd5760405162461bcd60e51b815260040161085290612dde565b600f546040516001600160a01b039091169082156108fc029083906000818181858888f19350505050611a225760405162461bcd60e51b815260040161085290612dde565b6010546040516001600160a01b039091169082156108fc029083906000818181858888f19350505050611a675760405162461bcd60e51b815260040161085290612dde565b6011546040516001600160a01b039091169082156108fc029083906000818181858888f19350505050611aac5760405162461bcd60e51b815260040161085290612dde565b50565b611aba848484611ebf565b611ac6848484846122e7565b611ae25760405162461bcd60e51b815260040161085290612e38565b50505050565b6007546001600160a01b03163314611b125760405162461bcd60e51b815260040161085290612e03565b6103e8611b2283610ec660005490565b1115611b405760405162461bcd60e51b815260040161085290612e8b565b611b4a81836121b5565b7ff00d28232b285f24f2e38415deb2ceb31069e70d4505838b3911b4f02058502e611b7460005490565b60405190815260200160405180910390a15050565b6007546001600160a01b03163314611bb35760405162461bcd60e51b815260040161085290612e03565b6103e8611bc48251610ec660005490565b1115611be25760405162461bcd60e51b815260040161085290612e8b565b60005b8151811015610c1457611c126001838381518110611c0557611c0561300d565b6020026020010151611ae8565b80611c1c81612fb2565b915050611be5565b6060611c31826000541190565b611c955760405162461bcd60e51b815260206004820152602f60248201527f4552433732314d657461646174613a2055524920717565727920666f72206e6f60448201526e3732bc34b9ba32b73a103a37b5b2b760891b6064820152608401610852565b6103e8611ca160005490565b101580611cb057506009544210155b15611d2e576103e8821015611d29576000611cee6103e8611ce8611ce16008546103e86123f590919063ffffffff16565b86906121a2565b90612401565b9050611cf861240d565b611d018261241c565b604051602001611d12929190612d0b565b604051602081830303815290604052915050919050565b919050565b600b8054611d3b90612f77565b80601f0160208091040260200160405190810160405280929190818152602001828054611d6790612f77565b8015611db45780601f10611d8957610100808354040283529160200191611db4565b820191906000526020600020905b815481529060010190602001808311611d9757829003601f168201915b50505050509050919050565b60006108c782612519565b6007546001600160a01b03163314611df55760405162461bcd60e51b815260040161085290612e03565b6001600160a01b038116611e5a5760405162461bcd60e51b815260206004820152602660248201527f4f776e61626c653a206e6577206f776e657220697320746865207a65726f206160448201526564647265737360d01b6064820152608401610852565b611aac81612295565b60008281526005602052604080822080546001600160a01b0319166001600160a01b0387811691821790925591518593918516917f8c5be1e5ebec7d5bd14f71427d1e84f3dd0314c0f7b2291e5b200ac8c7c3b92591a4505050565b6000611eca826121bf565b80519091506000906001600160a01b0316336001600160a01b03161480611f01575033611ef68461095f565b6001600160a01b0316145b80611f1357508151611f1390336107c4565b905080611f7d5760405162461bcd60e51b815260206004820152603260248201527f455243373231413a207472616e736665722063616c6c6572206973206e6f74206044820152711bdddb995c881b9bdc88185c1c1c9bdd995960721b6064820152608401610852565b846001600160a01b031682600001516001600160a01b031614611ff15760405162461bcd60e51b815260206004820152602660248201527f455243373231413a207472616e736665722066726f6d20696e636f72726563746044820152651037bbb732b960d11b6064820152608401610852565b6001600160a01b0384166120555760405162461bcd60e51b815260206004820152602560248201527f455243373231413a207472616e7366657220746f20746865207a65726f206164604482015264647265737360d81b6064820152608401610852565b6120656000848460000151611e63565b6001600160a01b03858116600090815260046020908152604080832080546001600160801b03198082166001600160801b03928316600019018316179092558986168086528386208054938416938316600190810190931693909317909255888552600390935281842080546001600160e01b031916909117600160a01b426001600160401b0316021790559086018083529120549091166121585761210c816000541190565b1561215857825160008281526003602090815260409091208054918601516001600160401b0316600160a01b026001600160e01b03199092166001600160a01b03909316929092171790555b5082846001600160a01b0316866001600160a01b03167fddf252ad1be2c89b69c2b068fc378daa952ba7f163c4a11628f55a4df523b3ef60405160405180910390a45b5050505050565b60006121ae8284612ee9565b9392505050565b610c1482826125b7565b60408051808201909152600080825260208201526121de826000541190565b61223d5760405162461bcd60e51b815260206004820152602a60248201527f455243373231413a206f776e657220717565727920666f72206e6f6e657869736044820152693a32b73a103a37b5b2b760b11b6064820152608401610852565b815b6000818152600360209081526040918290208251808401909352546001600160a01b038116808452600160a01b9091046001600160401b0316918301919091521561228b579392505050565b506000190161223f565b600780546001600160a01b038381166001600160a01b0319831681179093556040519116919082907f8be0079c531659141344cd1fd0a4f28419497f9722a3daafe3b4186f6b6457e090600090a35050565b60006001600160a01b0384163b156123e957604051630a85bd0160e11b81526001600160a01b0385169063150b7a029061232b903390899088908890600401612d4a565b602060405180830381600087803b15801561234557600080fd5b505af1925050508015612375575060408051601f3d908101601f1916820190925261237291810190612bbc565b60015b6123cf573d8080156123a3576040519150601f19603f3d011682016040523d82523d6000602084013e6123a8565b606091505b5080516123c75760405162461bcd60e51b815260040161085290612e38565b805181602001fd5b6001600160e01b031916630a85bd0160e11b1490506123ed565b5060015b949350505050565b60006121ae8284612f34565b60006121ae8284612fcd565b6060600a80546108dc90612f77565b6060816124405750506040805180820190915260018152600360fc1b602082015290565b8160005b811561246a578061245481612fb2565b91506124639050600a83612f01565b9150612444565b6000816001600160401b0381111561248457612484613023565b6040519080825280601f01601f1916602001820160405280156124ae576020820181803683370190505b5090505b84156123ed576124c3600183612f34565b91506124d0600a86612fcd565b6124db906030612ee9565b60f81b8183815181106124f0576124f061300d565b60200101906001600160f81b031916908160001a905350612512600a86612f01565b94506124b2565b60006001600160a01b03821661258b5760405162461bcd60e51b815260206004820152603160248201527f455243373231413a206e756d626572206d696e74656420717565727920666f7260448201527020746865207a65726f206164647265737360781b6064820152608401610852565b506001600160a01b0316600090815260046020526040902054600160801b90046001600160801b031690565b610c14828260405180602001604052806000815250610afd83838360016000546001600160a01b0385166126375760405162461bcd60e51b815260206004820152602160248201527f455243373231413a206d696e7420746f20746865207a65726f206164647265736044820152607360f81b6064820152608401610852565b836126955760405162461bcd60e51b815260206004820152602860248201527f455243373231413a207175616e74697479206d75737420626520677265617465604482015267072207468616e20360c41b6064820152608401610852565b6001600160a01b03851660008181526004602090815260408083208054600160801b6001600160801b031982166001600160801b039283168c01831690811782900483168c01909216021790558483526003909152812080546001600160e01b031916909217600160a01b426001600160401b0316021790915581905b8581101561278d5760405182906001600160a01b038916906000907fddf252ad1be2c89b69c2b068fc378daa952ba7f163c4a11628f55a4df523b3ef908290a483156127815761276560008884886122e7565b6127815760405162461bcd60e51b815260040161085290612e38565b60019182019101612712565b5060005561219b565b8280546127a290612f77565b90600052602060002090601f0160209004810192826127c4576000855561280a565b82601f106127dd57805160ff191683800117855561280a565b8280016001018555821561280a579182015b8281111561280a5782518255916020019190600101906127ef565b5061111c92915061288a565b82805461282290612f77565b90600052602060002090601f016020900481019282612844576000855561280a565b82601f1061285d5782800160ff1982351617855561280a565b8280016001018555821561280a579182015b8281111561280a57823582559160200191906001019061286f565b5b8082111561111c576000815560010161288b565b60006001600160401b038311156128b8576128b8613023565b6128cb601f8401601f1916602001612eb9565b90508281528383830111156128df57600080fd5b828260208301376000602084830101529392505050565b80356001600160a01b0381168114611d2957600080fd5b60006020828403121561291f57600080fd5b6121ae826128f6565b6000806040838503121561293b57600080fd5b612944836128f6565b9150612952602084016128f6565b90509250929050565b60008060006060848603121561297057600080fd5b612979846128f6565b9250612987602085016128f6565b9150604084013590509250925092565b600080600080608085870312156129ad57600080fd5b6129b6856128f6565b93506129c4602086016128f6565b92506040850135915060608501356001600160401b038111156129e657600080fd5b8501601f810187136129f757600080fd5b612a068782356020840161289f565b91505092959194509250565b60008060408385031215612a2557600080fd5b612a2e836128f6565b915060208301358015158114612a4357600080fd5b809150509250929050565b60008060408385031215612a6157600080fd5b612a6a836128f6565b946020939093013593505050565b60008060208385031215612a8b57600080fd5b82356001600160401b0380821115612aa257600080fd5b818501915085601f830112612ab657600080fd5b813581811115612ac557600080fd5b8660208260051b8501011115612ada57600080fd5b60209290920196919550909350505050565b60006020808385031215612aff57600080fd5b82356001600160401b0380821115612b1657600080fd5b818501915085601f830112612b2a57600080fd5b813581811115612b3c57612b3c613023565b8060051b9150612b4d848301612eb9565b8181528481019084860184860187018a1015612b6857600080fd5b600095505b83861015612b9257612b7e816128f6565b835260019590950194918601918601612b6d565b5098975050505050505050565b600060208284031215612bb157600080fd5b81356121ae81613039565b600060208284031215612bce57600080fd5b81516121ae81613039565b60008060208385031215612bec57600080fd5b82356001600160401b0380821115612c0357600080fd5b818501915085601f830112612c1757600080fd5b813581811115612c2657600080fd5b866020828501011115612ada57600080fd5b600060208284031215612c4a57600080fd5b81356001600160401b03811115612c6057600080fd5b8201601f81018413612c7157600080fd5b6123ed8482356020840161289f565b600060208284031215612c9257600080fd5b5035919050565b60008060408385031215612cac57600080fd5b82359150612952602084016128f6565b600060208284031215612cce57600080fd5b813560ff811681146121ae57600080fd5b60008151808452612cf7816020860160208601612f4b565b601f01601f19169290920160200192915050565b60008351612d1d818460208801612f4b565b835190830190612d31818360208801612f4b565b64173539b7b760d91b9101908152600501949350505050565b6001600160a01b0385811682528416602082015260408101839052608060608201819052600090612d7d90830184612cdf565b9695505050505050565b6020808252825182820181905260009190848201906040850190845b81811015612dbf57835183529284019291840191600101612da3565b50909695505050505050565b6020815260006121ae6020830184612cdf565b6020808252600b908201526a14d95b990811985a5b195960aa1b604082015260600190565b6020808252818101527f4f776e61626c653a2063616c6c6572206973206e6f7420746865206f776e6572604082015260600190565b60208082526033908201527f455243373231413a207472616e7366657220746f206e6f6e204552433732315260408201527232b1b2b4bb32b91034b6b83632b6b2b73a32b960691b606082015260800190565b602080825260149082015273457863656564696e67206d617820737570706c7960601b604082015260600190565b604051601f8201601f191681016001600160401b0381118282101715612ee157612ee1613023565b604052919050565b60008219821115612efc57612efc612fe1565b500190565b600082612f1057612f10612ff7565b500490565b6000816000190483118215151615612f2f57612f2f612fe1565b500290565b600082821015612f4657612f46612fe1565b500390565b60005b83811015612f66578181015183820152602001612f4e565b83811115611ae25750506000910152565b600181811c90821680612f8b57607f821691505b60208210811415612fac57634e487b7160e01b600052602260045260246000fd5b50919050565b6000600019821415612fc657612fc6612fe1565b5060010190565b600082612fdc57612fdc612ff7565b500690565b634e487b7160e01b600052601160045260246000fd5b634e487b7160e01b600052601260045260246000fd5b634e487b7160e01b600052603260045260246000fd5b634e487b7160e01b600052604160045260246000fd5b6001600160e01b031981168114611aac57600080fdfea264697066735822122071b8d537a81e04c57647d042f7fbfd75d927f89cdc469c2f0a6b189a9851debb64736f6c63430008060033",
  "linkReferences": {},
  "deployedLinkReferences": {}
}